:020000040000FA
:040000004AEF0EF0C5
:10060000003F065B4F666D7D077F6F777C395E79B3
:10061000713F065B4F666D7D077F6F777C395E7932
:1006200071554C445253584142597354454D504FA3
:100630002052455354414E5445203D0042414E48BE
:100640004F2046494E414C495A41444F004147557D
:10065000415244452031204D494E55544F004241AE
:100660004E484F2045434F4E4F4D49434F00205376
:10067000205041524120434F4D4543415200424199
:100680004E484F20494E49434941444F00000450D1
:10069000800B0D6E045004240F6E03AE52EF03F076
:1006A00054EF03F055EF03F00F800F50D8B45BEF19
:1006B00003F05DEF03F072EF03F00F28D8A463EFAF
:1006C00003F065EF03F06DEF03F0000E016E000E16
:1006D000026E000E036E000E046E038E000E046E9A
:1006E0007AEF03F0000E016E000E026E000E036E34
:1006F000000E046E0850800B0E6E0D500E18D8B40C
:1007000084EF03F086EF03F087EF03F00D8C0850C1
:1007100008240E6E07AE8FEF03F091EF03F092EF17
:1007200003F00E800E50D8B498EF03F09AEF03F068
:10073000AFEF03F00E28D8A4A0EF03F0A2EF03F070
:10074000AAEF03F0000E056E000E066E000E076E97
:10075000000E086E078E000E086EB7EF03F0000E55
:10076000056E000E066E000E076E000E086E0F502E
:100770000E5CD8B0BEEF03F0C0EF03F0E7EF03F07C
:100780000DACC5EF03F0C7EF03F0C9EF03F0800E27
:100790000D1A0FC010F00EC00FF010C00EF001C007
:1007A00010F005C001F010C005F002C010F006C046
:1007B00002F010C006F003C010F007C003F010C034
:1007C00007F004C010F008C004F010C008F0000EDC
:1007D000106E0F500EC009F00A6A095E000E0A5A28
:1007E0000ABEFCEF03F00A5009E11A0E095CD8A01A
:1007F000FCEF03F0FEEF03F035EF04F001500210C0
:1008000003100410D8A407EF04F00AEF04F0010E5F
:100810000BEF04F0000E106E000E016E000E026E63
:10082000000E036E000E046E0EC00FF03EEF04F0DB
:1008300010A01DEF04F01FEF04F025EF04F0D89096
:1008400010300109106E27EF04F0D890103201A08B
:100850002CEF04F02EEF04F02FEF04F0108E043490
:1008600004320332023201320F2A0E500F5CD8A03C
:100870003CEF04F03EEF04F018EF04F00DBC43EF42
:1008800004F045EF04F085EF04F00F50D8A44BEFCF
:1008900004F04DEF04F057EF04F0000E016E000E6F
:1008A000026E000E036E000E046EA6EF05F00550FA
:1008B000012606500222075003220850042204A0F9
:1008C00064EF04F066EF04F012EF05F010A06BEF98
:1008D00004F06DEF04F073EF04F0D89010300109CC
:1008E000106E75EF04F0D890103201A07AEF04F08A
:1008F0007CEF04F07DEF04F0108E043404320332F8
:10090000023201320F2A12EF05F00550015C065049
:100910000258075003580450800A096E0850800A94
:100920000958D8B096EF04F098EF04F0C3EF04F044
:100930000150055C096E025006580A6E03500758B4
:100940000B6E045008580C6EFF0E0924016EFF0E4A
:100950000A20026EFF0E0B20036EFF0E0C20046EA9
:10096000800E0D1A106C1050D8A4B9EF04F0BBEF34
:1009700004F0CBEF04F0010E0126000E0222032248
:100980000422CBEF04F00550015E0650025A0750D6
:10099000035A0850045A0150021003100410D8A43E
:1009A000D4EF04F0D6EF04F00BEF05F01050D8A40C
:1009B000DCEF04F0DEEF04F00BEF05F0000E016E4B
:1009C000000E026E000E036E000E046EA6EF05F020
:1009D000D890013602360336043610AEF2EF04F03A
:1009E000F4EF04F0F5EF04F0018010A0FAEF04F04A
:1009F000FCEF04F000EF05F0D880103602EF05F0B0
:100A0000D89010360F50D8B408EF05F00AEF05F073
:100A10000BEF05F00F0603AE10EF05F012EF05F037
:100A2000E8EF04F0000E0E6E10AE19EF05F01BEFAC
:100A300005F033EF05F010C009F07F0E0916D8B4A9
:100A400024EF05F026EF05F02AEF05F0010E0E6EFB
:100A500033EF05F001A02FEF05F031EF05F033EF94
:100A600005F026EF05F00E50D8B439EF05F03BEF56
:100A700005F066EF05F0010E0126000E02220322AA
:100A8000042204A046EF05F048EF05F066EF05F0FC
:100A900001C009F002C00AF003C00BF004C00CF062
:100AA0000C340C320B320A32093209C001F00AC090
:100AB00002F00BC003F00CC004F00F28D8B463EFB1
:100AC00005F065EF05F066EF05F00F2A0F28D8B4A2
:100AD0006CEF05F06EEF05F076EF05F00F50D8A43F
:100AE00074EF05F076EF05F088EF05F0000E016E6B
:100AF000000E026E000E036E000E046E0F50D8A49E
:100B000084EF05F086EF05F088EF05F0000E0D6E1E
:100B10000FA08DEF05F08FEF05F092EF05F0038E3B
:100B200093EF05F0039ED8900F30046E0DAE9BEF4F
:100B300005F09DEF05F09EEF05F0048E01C001F079
:100B400002C002F003C003F004C004F0120011C0A0
:100B500019F012C01AF01ABEB2EF05F0B0EF05F0AE
:100B6000B4EF05F0ECEF06F0000E046E640E036EB9
:100B700019C001F01AC002F084EC0BF001C009F0BA
:100B800002C00AF0000E0C6E0A0E0B6E40EC0CF068
:100B900009502E6E030E046EE80E036E19C001F0AC
:100BA0001AC002F084EC0BF001C009F002C00AF098
:100BB000000E0C6E0A0E0B6E40EC0CF009502D6E00
:100BC000270E046E100E036E19C001F01AC002F059
:100BD00084EC0BF001C009F002C00AF0000E0C6EAC
:100BE0000A0E0B6E40EC0CF009502C6E000E026EDB
:100BF000180E016E000E046E000E036E14EC08F069
:100C0000000E026E190E016E000E046E000E036ED1
:100C100014EC08F0000E026E1A0E016E000E046E47
:100C2000000E036E14EC08F0000E026E1B0E016E37
:100C3000000E046E000E036E14EC08F0000E086E39
:100C4000000E076E57EC0DF078EF06F0110E2C2415
:100C5000F66EF76A060EF7220800F550076E086A6E
:100C600057EC0DF0000E026E190E016E000E046EB0
:100C7000010E036E14EC08F0010E2F6E91EF06F0DA
:100C8000110E2D24F66EF76A060EF7220800F550B5
:100C9000076E086A57EC0DF0000E026E1A0E016E18
:100CA000000E046E010E036E14EC08F0020E2F6E9F
:100CB00091EF06F0110E2E24F66EF76A060EF7225B
:100CC0000800F550076E086A57EC0DF0000E026E32
:100CD0001B0E016E000E046E010E036E14EC08F084
:100CE000030E2F6E91EF06F0000E2F6E91EF06F0BF
:100CF0002F50136E146A1450000AD8B482EF06F015
:100D000074EF06F01350000AD8B426EF06F0010A7B
:100D1000D8B440EF06F0030AD8B45AEF06F074EFE7
:100D200006F0000E156E000E166E000E176E000E09
:100D3000186E15C001F016C002F017C003F018C0FD
:100D400004F0000E056E000E066E480E076E420E91
:100D5000086E8BEC0AF0D8A0B0EF06F0B2EF06F008
:100D6000B4EF06F0E7EF06F015C001F016C002F090
:100D700017C003F018C004F0000E056E000E066EDA
:100D8000800E076E3F0E086E47EC03F001C015F0B1
:100D900002C016F003C017F004C018F015C001F02F
:100DA00016C002F017C003F018C004F0000E056E64
:100DB000000E066E480E076E420E086E8BEC0AF0AF
:100DC000D8A0E5EF06F0E7EF06F0B4EF06F019065D
:100DD000D8A01A06ABEF05F0120002BEFBEF06F03A
:100DE000025007E1080E015CD8B0F9EF06F0FBEF06
:100DF00006F025EF07F003500410D8B402EF07F017
:100E000004EF07F014EF07F001C005F0010E066EC5
:100E1000052A0DEF07F0D8900636052E0BEF07F0E8
:100E20000650921213EF08F001C005F0010E066E95
:100E3000052A1DEF07F0D8900636052E1BEF07F0A8
:100E40000650FF0A921613EF08F002BE33EF07F0C8
:100E5000025007E1100E015CD8B031EF07F033EF1C
:100E600007F061EF07F003500410D8B43AEF07F031
:100E70003CEF07F04EEF07F001C005F0F80E052635
:100E8000010E066E052A47EF07F0D8900636052EAC
:100E900045EF07F00650931213EF08F001C005F07C
:100EA000F80E0526010E066E052A59EF07F0D890B8
:100EB0000636052E57EF07F00650FF0A931613EF7C
:100EC00008F002BE6FEF07F0025007E1180E015C58
:100ED000D8B06DEF07F06FEF07F09DEF07F003500C
:100EE0000410D8B476EF07F078EF07F08AEF07F038
:100EF00001C005F0F00E0526010E066E052A83EFEF
:100F000007F0D8900636052E81EF07F006509412B0
:100F100013EF08F001C005F0F00E0526010E066E75
:100F2000052A95EF07F0D8900636052E93EF07F0C7
:100F30000650FF0A941613EF08F002BEABEF07F05D
:100F4000025007E1200E015CD8B0A9EF07F0ABEF2B
:100F500007F0D9EF07F003500410D8B4B2EF07F050
:100F6000B4EF07F0C6EF07F001C005F0E80E052664
:100F7000010E066E052ABFEF07F0D8900636052E43
:100F8000BDEF07F00650951213EF08F001C005F011
:100F9000E80E0526010E066E052AD1EF07F0D8905F
:100FA0000636052ECFEF07F00650FF0A951613EF11
:100FB00008F002BEE7EF07F0025007E1280E015CDF
:100FC000D8B0E5EF07F0E7EF07F013EF08F00350B4
:100FD0000410D8B4EEEF07F0F0EF07F002EF08F0DE
:100FE00001C005F0E00E0526010E066E052AFBEF96
:100FF00007F0D8900636052EF9EF07F00650961246
:1010000013EF08F001C005F0E00E0526010E066E94
:10101000052A0DEF08F0D8900636052E0BEF08F0E4
:101020000650FF0A9616120002BE22EF08F0025088
:1010300007E1080E015CD8B020EF08F022EF08F0BD
:101040004CEF08F003500410D8B429EF08F02BEF50
:1010500008F03BEF08F001C005F0010E066E052A0E
:1010600034EF08F0D8900636052E32EF08F006501F
:1010700080123AEF09F001C005F0010E066E052A54
:1010800044EF08F0D8900636052E42EF08F00650DF
:10109000FF0A80163AEF09F002BE5AEF08F002503C
:1010A00007E1100E015CD8B058EF08F05AEF08F0D5
:1010B00088EF08F0F80E0126FF0E022203500410FC
:1010C000D8B465EF08F067EF08F077EF08F001C0DB
:1010D00005F0010E066E052A70EF08F0D89006366E
:1010E000052E6EEF08F0065081123AEF09F001C0AC
:1010F00005F0010E066E052A80EF08F0D89006363E
:10110000052E7EEF08F00650FF0A81163AEF09F02F
:1011100002BE96EF08F0025007E1180E015CD8B04D
:1011200094EF08F096EF08F0C4EF08F0F00E0126F7
:10113000FF0E022203500410D8B4A1EF08F0A3EF71
:1011400008F0B3EF08F001C005F0010E066E052AA5
:10115000ACEF08F0D8900636052EAAEF08F006503E
:1011600082123AEF09F001C005F0010E066E052A61
:10117000BCEF08F0D8900636052EBAEF08F00650FE
:10118000FF0A82163AEF09F002BED2EF08F00250D1
:1011900007E1200E015CD8B0D0EF08F0D2EF08F0E4
:1011A00000EF09F0E80E0126FF0E022203500410A2
:1011B000D8B4DDEF08F0DFEF08F0EFEF08F001C082
:1011C00005F0010E066E052AE8EF08F0D890063605
:1011D000052EE6EF08F0065083123AEF09F001C041
:1011E00005F0010E066E052AF8EF08F0D8900636D5
:1011F000052EF6EF08F00650FF0A83163AEF09F0C5
:1012000002BE0EEF09F0025007E1280E015CD8B0D3
:101210000CEF09F00EEF09F03AEF09F0E00E0126AD
:10122000FF0E022203500410D8B419EF09F01BEF8F
:1012300009F02BEF09F001C005F0010E066E052A3A
:1012400024EF09F0D8900636052E22EF09F006505B
:1012500084123AEF09F001C005F0010E066E052A6E
:1012600034EF09F0D8900636052E32EF09F006501B
:10127000FF0A8416120002BE49EF09F0025007E18E
:10128000080E015CD8B047EF09F049EF09F05DEFB7
:1012900009F001C003F0010E046E032A52EF09F0B9
:1012A000D8900436032E50EF09F004508014056ED8
:1012B0000550016E026AEFEF09F002BE6BEF09F014
:1012C000025007E1100E015CD8B069EF09F06BEF36
:1012D00009F081EF09F001C003F0F80E0326010EBA
:1012E000046E032A76EF09F0D8900436032E74EFCB
:1012F00009F004508114056E0550016E026AEFEF8B
:1013000009F002BE8FEF09F0025007E1180E015CF0
:10131000D8B08DEF09F08FEF09F0A5EF09F001C00B
:1013200003F0F00E0326010E046E032A9AEF09F073
:10133000D8900436032E98EF09F004508214056EFD
:101340000550016E026AEFEF09F002BEB3EF09F03B
:10135000025007E1200E015CD8B0B1EF09F0B3EF05
:1013600009F0C9EF09F001C003F0E80E0326010EF1
:10137000046E032ABEEF09F0D8900436032EBCEFAA
:1013800009F004508314056E0550016E026AEFEFF8
:1013900009F002BED7EF09F0025007E1280E015C08
:1013A000D8B0D5EF09F0D7EF09F0EDEF09F001C0A3
:1013B00003F0E00E0326010E046E032AE2EF09F0AB
:1013C000D8900436032EE0EF09F004508414056E23
:1013D0000550016E026AEFEF09F001680268120021
:1013E000000E216E000E206E000E0E6E000E0D6EB1
:1013F0000EBE04EF0AF00E5009E1050E0D5CD8A0F8
:1014000004EF0AF006EF0AF008EF0AF069EF0AF0BD
:101410000DC00AF0030E0A26010E0B6E000E0C6EB4
:101420000A2A16EF0AF0D8900B360C360A2E13EF64
:101430000AF00BC007F00CC008F057EC0DF0000EDE
:10144000026E0A0E016E3BEC09F001500210D8B496
:101450002CEF0AF02EEF0AF041EF0AF00DC00AF06F
:10146000010E0B6E000E0C6E0A2A3AEF0AF0D890AD
:101470000B360C360A2E37EF0AF00B5020120C50A8
:101480002112000E026E090E016E3BEC09F00150B4
:101490000210D8B44EEF0AF050EF0AF065EF0AF0F0
:1014A0000DC00AF0050E0A26010E0B6E000E0C6E22
:1014B0000A2A5EEF0AF0D8900B360C360A2E5BEF44
:1014C0000AF00B5020120C5021120D4A0E2AF8EF90
:1014D00009F020501E1807E121501F18D8A473EFFF
:1014E0000AF075EF0AF078EF0AF026067EEF0AF0B0
:1014F000010E266E20C01EF021C01FF02650D8A479
:1015000084EF0AF086EF0AF08AEF0AF01EC022F09C
:101510001FC023F01200000E0114096E000E021409
:101520000A6E800E03140B6E7F0E04140C6E0950AD
:101530000A100B100C10D8A4A0EF0AF0A2EF0AF0CA
:10154000AAEF0AF0000E016E000E026E000E036E8E
:10155000000E046E000E0514096E000E06140A6ECD
:10156000800E07140B6E7F0E08140C6E09500A10C3
:101570000B100C10D8A4BFEF0AF0C1EF0AF0C9EFAE
:101580000AF0000E056E000E066E000E076E000ECD
:10159000086E04AECEEF0AF0D0EF0AF0D9EF0AF0F1
:1015A000016C021ED8B0022A031ED8B0032A800E96
:1015B000045608AEDEEF0AF0E0EF0AF0E9EF0AF0B9
:1015C000056C061ED8B0062A071ED8B0072A800E62
:1015D0000856000E011A000E021A000E031A800EA1
:1015E000041A000E051A000E061A000E071A800EC5
:1015F000081A0550015C065002580750035808505D
:101600000458D8B006EF0BF008EF0BF00BEF0BF01F
:10161000D8900CEF0BF0D8801200E6EC0BF0BEEC8B
:101620000DF001EC0DF0000E1D6E020E836E800EAB
:101630003BEC0EF05E0E0F6E060E106E2CEC0DF0F5
:10164000C00E3BEC0EF06E0E0F6E060E106E2CEC04
:101650000DF0F0EC09F098EC0CF01D18D8B433EF55
:101660000BF035EF0BF015EF0BF098EC0CF01D6E56
:1016700071EF0BF0000E1D6E800E3BEC0EF07E0E37
:101680000F6E060E106E2CEC0DF0C00E3BEC0EF043
:101690002B0E0F6E060E106E2CEC0DF0170E126E48
:1016A000D40E116EA7EC05F0800E3BEC0EF03C0E54
:1016B0000F6E060E106E2CEC0DF0C00E3BEC0EF013
:1016C0004D0E0F6E060E106E2CEC0DF0170E126EF6
:1016D000D40E116EA7EC05F0010E3BEC0EF015EFE9
:1016E0000BF01D501B6E1C6A1C50000AD8B47BEF17
:1016F0000BF015EF0BF01B50530AD8B43AEF0BF078
:1017000015EF0BF000EF00F0000E066E04BE8DEF3B
:101710000BF08BEF0BF093EF0BF0036C041ED8B0C3
:10172000042A010E066E02BE9AEF0BF098EF0BF042
:10173000A0EF0BF0016C021ED8B0022A010E061AAF
:10174000000E086E000E076E03500410D8B4ABEF05
:101750000BF0ADEF0BF0D5EF0BF0010E056EB5EF12
:101760000BF0D89003360436052A04AEBAEF0BF01E
:10177000BCEF0BF0B1EF0BF0D890073608360350F2
:10178000015C04500258D8A0C8EF0BF0CAEF0BF070
:10179000CFEF0BF00350015E0450025A0780D8903F
:1017A00004320332052EBCEF0BF00650D8B4DBEF49
:1017B0000BF0DDEF0BF0E1EF0BF0076C081ED8B07B
:1017C000082A07C001F008C002F01200000E026EE5
:1017D0001C0E016E000E046E000E036EEDEC06F0A2
:1017E000000E026E1D0E016E000E046E000E036EE2
:1017F000EDEC06F09FEC0DF0000E026E0F0E016E88
:10180000D7EC0DF0000E0B6E000E0A6E030E19ECF5
:101810000EF0000E026E050E016ED7EC0DF0000EFC
:101820000B6E000E0A6E030E19EC0EF0000E026E27
:10183000A00E016E55EC0EF0000E0B6E000E0A6E3F
:10184000030E19EC0EF0000E026EA00E016E55ECA8
:101850000EF0000E0B6E000E0A6E020E19EC0EF06A
:10186000000E026E0A0E016ED7EC0DF0280E3BEC56
:101870000EF00C0E3BEC0EF0010E3BEC0EF01200E5
:10188000000E0E6E0ABE49EF0CF047EF0CF04FEF62
:101890000CF0096C0A1ED8B00A2A010E0E6E0CBE9E
:1018A00056EF0CF054EF0CF05AEF0CF00B6C0C1ED2
:1018B000D8B00C2A0B500C10D8B461EF0CF063EFC9
:1018C0000CF087EF0CF0010E0D6E6BEF0CF0D89062
:1018D0000B360C360D2A0CAE70EF0CF072EF0CF0DC
:1018E00067EF0CF00B50095C0C500A58D8A07BEF46
:1018F0000CF07DEF0CF081EF0CF00B50095E0C50FA
:101900000A5AD8900C320B320D2E72EF0CF00E509A
:10191000D8B48DEF0CF08FEF0CF093EF0CF0096C56
:101920000A1ED8B00A2A09C009F00AC00AF012003B
:10193000000E056E000E046E04C001F0010E026E72
:10194000000E036E012AA8EF0CF0D8900236033681
:10195000012EA5EF0CF02250021623500316025060
:101960000310D8B4B6EF0CF0B8EF0CF0C2EF0CF0E7
:10197000210E0424F66E060E0520F76E0800F550C1
:10198000D3EF0CF0044A052A05BED0EF0CF0055049
:1019900009E10A0E045CD8A0D0EF0CF0D2EF0CF0F5
:1019A0009CEF0CF0000E12000D6E0DC00CF00C3A06
:1019B0000F0E0C160C50076E086A57EC0DF0000E57
:1019C000026E1D0E016E0AC003F00BC004F014EC91
:1019D00008F07EEC0DF00DC00CF00F0E0C160C5044
:1019E000076E086A57EC0DF0000E026E1D0E016EB8
:1019F0000AC003F00BC004F014EC08F07EEC0DF00C
:101A00001200000E026E180E016E000E046E000E23
:101A1000036EEDEC06F0000E026E190E016E000E64
:101A2000046E000E036EEDEC06F0000E026E1A0E50
:101A3000016E000E046E000E036EEDEC06F0000E5B
:101A4000026E1B0E016E000E046E000E036EEDECB6
:101A500006F09FEC0DF01200000E146E000E136ED7
:101A600042EF0DF013500F24116E14501020126E1F
:101A700011C0F6FF12C0F7FF0800F5502CEC0EF075
:101A8000134A142A13500F24116E14501020126E92
:101A900011C0F6FF12C0F7FF0800F5500009D8A4E6
:101AA00054EF0DF056EF0DF032EF0DF01200000E76
:101AB000026E080E016E000E046E000E036E14EC32
:101AC00008F0000E096E000E026E1E0E016E800EF2
:101AD0000714036E046A14EC08F004EC0EF0D890BE
:101AE00007360836092A070E096479EF0DF07BEFF7
:101AF0000DF063EF0DF0EFEC0DF01200000E026E32
:101B00001C0E016E000E046E010E036E14EC08F044
:101B1000000E026E050E016E55EC0EF0000E026E08
:101B20001C0E016E000E046E000E036E14EC08F025
:101B3000000E026E050E016E55EC0EF01200000E46
:101B4000026E1F0E016E000E046E000E036EEDECB1
:101B500006F0000E026E080E016E000E046E000EFE
:101B6000036EEDEC06F0000E026E1E0E016E000E0E
:101B7000046E000E036EEDEC06F012009FEC0DF00B
:101B8000000E026E0A0E016E000E046E010E036E50
:101B9000EDEC06F0000E026E090E016E000E046EF2
:101BA000010E036EEDEC06F00C0EC16E1200000E7D
:101BB000056E000E046EDFEF0DF0044A052A015099
:101BC000045C0550800A036E0250800A0358D8A0B6
:101BD000ECEF0DF0EEEF0DF0DDEF0DF01200000E6A
:101BE000026E1F0E016E000E046E010E036E14ECE9
:101BF00008F0000E026E1F0E016E000E046E000E45
:101C0000036E14EC08F01200000E026E080E016E56
:101C1000000E046E010E036E14EC08F0000E026E4E
:101C2000080E016E000E046E000E036E14EC08F038
:101C300012000C6E0CC007F0086A57EC0DF0000E95
:101C4000026E1D0E016E0AC003F00BC004F014EC0E
:101C500008F07EEC0DF012000E6E000E0B6E010E01
:101C60000A6E0E50D4EC0CF0000E026E500E016E97
:101C700055EC0EF012000E6E000E0B6E000E0A6E8A
:101C80000E50D4EC0CF0000E026E020E016ED7EC7A
:101C90000DF0120000EE1EF0120EEE6AE806FDE1F5
:0C1CA000000EF86E00010DEF0BF01200BA
:020000040020DA
:08000000FFFFFFFFFFFFFFFF00
:020000040030CA
:0E000000FF027100FF8380FF0FC00FE00F4072
:00000001FF
